:0400000074EF0AF09F
:08000800046ED8CF05F0E0CF33
:1000100006F00001E9CF0CF0EACF07F0E1CF08F0DD
:10002000E2CF09F0D9CF0AF0DACF0BF0F3CF12F01C
:10003000F4CF13F0FACF14F0F5CF15F0F6CF16F099
:10004000F7CF17F000C00EF001C00FF002C010F0A3
:1000500003C011F09DA030EF00F09EB0A1EF00F0C2
:10006000F2A836EF00F0F2B26CEF00F0F0A63CEF31
:1000700000F0F0B079EF00F00EC000F00FC001F01A
:1000800010C002F011C003F00CC0E9FF07C0EAFF86
:10009000078E08C0E1FF09C0E2FF0AC0D9FF0BC00C
:1000A000DAFF12C0F3FF13C0F4FF14C0FAFF15C04B
:1000B000F5FF16C0F6FF17C0F7FF045006C0E0FFBB
:1000C00005C0D8FF100042617420646175206C6126
:1000D00079206D61750D000082A604D09C2BD8B4E8
:1000E0009D2B04D09C51D8B49D079C07F2923CEF05
:1000F00000F082A804D09E2BD8B49F2B04D09E5130
:10010000D8B49F079E07F0903CEF00F08E0E006E73
:10011000FFC001F0FEC002F0036A015209E102C013
:1001200001F0026A080E005E015202E1006A08D086
:10013000D89001BE04D0023601360006F9D7019EE0
:1001400012009DC0A1F09CC0A0F09FC0A3F09EC073
:10015000A2F0A3C0FFF0A2C0FEF0D8DF03C0ABF056
:1001600002C0AAF001C0A9F000C0A8F0A1C0FFF031
:10017000A0C0FEF0CBDF03C0A7F002C0A6F001C014
:10018000A5F000C0A4F09F6B9E6B9D6B9C6BB50EA1
:10019000CD6EC20ECF6EF70ECE6E9E903CEF00F08D
:1001A0000A5049443A2025302E3266202D202564FD
:1001B0000000E45302E18A9401D08A849394E553C9
:1001C00002E18A9601D08A869396E65302E18A98E4
:1001D00001D08A8893981200100E996E050EC26E97
:1001E000200E006E002EFED700D00000C282C2B2E8
:1001F000FED7C4CF03F0C350816F03C082F0836B7E
:10020000846B010E996EC26E200E006E002EFED71A
:1002100000D00000C282C2B2FED7C4CF03F0C350E8
:10022000856F03C086F0876B886B996A0D0EC26E6E
:10023000200E006E002EFED700D00000C282C2B297
:10024000FED7C4CF03F0C350896F03C08AF08B6B15
:100250008C6B996A090EC26E200E006E002EFED7BE
:1002600000D00000C282C2B2FED7C4CF03F0C35098
:100270008D6F03C08EF08F6B906B996A050EC26E06
:10028000200E006E002EFED700D00000C282C2B247
:10029000FED7C4CF03F0C350916F03C092F0936BAD
:1002A000946B996A010EC26E200E006E002EFED76E
:1002B00000D00000C282C2B2FED7C4CF03F0C35048
:1002C000956F03C096F0976B986B1200EA6AE80E80
:1002D000E96EEF500DE0060E016E006A002EFED7AB
:1002E000012EFBD77B0E006E002EFED7EF2EF3D72C
:1002F0001200996BE46BE4510508D8A097D06CDF2D
:10030000E451040DF350036A690FE96E000E0320F7
:10031000EA6EF2CFE8F0F29EE4C0A9FFA69CA69E8A
:10032000A680A850E8BFF28EEE52EE52EC6AED5273
:10033000EF6AED52EF6AED52EF6EE451040DF350A7
:10034000036A690FE96E000E0320EA6EEFCFE6F054
:10035000ECCFE7F0ECCFE8F0ECCFE9F0E451040D9E
:10036000F350036A810FE96E000E0320EA6EEFCFAF
:1003700000F0ECCF01F0ECCF02F0ECCF03F0E9514C
:10038000035C52E30BE1E851025C4EE307E1E75105
:10039000015C4AE303E10050E65D46E2E56BE551AE
:1003A000040837E3010EE86F91DFE451040DF350C8
:1003B000036A690FE96E000E0320EA6EEFCFE6F0E4
:1003C000ECCFE7F0ECCFE8F0ECCFE9F0E451040D2E
:1003D000F350036A810FE96E000E0320EA6EEFCF3F
:1003E00000F0ECCF01F0ECCF02F0ECCF03F00350C3
:1003F000E95D0DE30BE10250E85D09E307E101501F
:10040000E75D05E303E10050E65D01E30DD0E52B78
:10041000C6D7050ED880E455036A630FE96E000E57
:100420000320EA6EEF509913E42B65D719EF02F021
:1004300060D7992D05D0FB0E9A6F010E9B6F49D0A6
:100440009951030803E1FC0E9A6F43D099510208B9
:1004500003E1FD0E9A6F3DD09951060803E1FE0EAF
:100460009A6F37D09951040802E19A6932D09951B4
:100470000C0802E19A6B2DD09951080803E1010E96
:100480009A6F27D09951180803E1020E9A6F21D074
:100490009951100803E1030E9A6F1BD0995130084F
:1004A00003E1040E9A6F15D09951200804E1050E5E
:1004B0009A6F9B690ED0995305E19B2D03D0FA0EDC
:1004C0009A6F07D0995305E19B51FF0802E1060E90
:1004D0009A6F12009EA8FED7AD6E55EF08F0800E01
:1004E000D8B2ED1BF26BF36BE9C0F1F0ED51F11BEB
:1004F000E851D8B4DCD0F06F006EEC51D8B4E0D045
:10050000F05FD8B481D03DE3EDC0F6F0F68FEEC0D9
:10051000F5F0EFC0F4F0F36BD890F633F533F43325
:10052000F333F02FF8D7F1AF03D0F281DDD0F291A1
:10053000F091F289EA6AEB0EE96EE9D0F299F1BF27
:100540000AD0F0A113D0F633F533F433F333002A95
:10055000D8B4C5D00BD0F6BF0CD0D890F337F43751
:10056000F537F6370006D8B4BAD0F5D7F28D6BD090
:10057000F29DE9C0F1F0E9AF02D0F68FA9D0F69F65
:10058000A7D0ECC0F0F0ECC000F0E851F05FE9C09B
:10059000F6F0F68FEAC0F5F0EBC0F4F0F36BD8900C
:1005A000F633F533F433F333F02FF8D7F1AF03D04C
:1005B000F2839AD0F293F091F28BEA6AEF0EE96E31
:1005C000A6D0F29BF1BF0AD0F0A113D0F633F533D9
:1005D000F433F333002AD8B482D00BD0F6BF0CD05A
:1005E000D890F337F437F537F6370006D8B477D01C
:1005F000F5D7F28F28D0F29FEDC0F1F0EDAF02D029
:10060000F68F66D0F69F64D0EDC0F6F0F68FEEC0A0
:10061000F5F0EFC0F4F0F1AF04D0F69FF28564D0AE
:10062000F295F36BF091EA6AEB0EE96E70D0F1BFD0
:100630001CD0E9C0F1F0F0A106D0F633F533F43365
:10064000F333002A4CE0F3AF0BD0F42B09E1F52B88
:1006500007E1F62B05E1F633F533F433002A3FE0EA
:10066000F2BD86D7F2BFC7D71CD0800EF61BF6AFFF
:1006700004D03AD0EDC0F1F00AD0E9C0F1F0F65361
:1006800006E1F55304E1F45302E1006A21D0F6BF1C
:1006900008D0D890F337F437F537F637002EF7D770
:1006A0001ED0F1AF02D0F68F13D0F69F11D0ECC060
:1006B00000F0EDC0F6F0EEC0F5F0EFC0F4F008D0B9
:1006C000E8C000F0E9C0F6F0EAC0F5F0EBC0F4F0E5
:1006D000F6C001F0F5C002F0F4C003F034D0006AB7
:1006E000016A026A036A2FD0F36BF41FF51FF61F2D
:1006F000F31FF32B05E1F42B03E1F52B01E1F62BBE
:10070000F2B115D7F2B356D7F2B58AD7B3D7EF50B7
:10071000F42705E3F52B03E1F62BD8B4F081ED5275
:10072000EF50F52703E3F62BD8B4F081ED52EF50EC
:10073000EFBE01D0800AF627D8B0F081F2B9FED61C
:10074000F2BB3FD774D71200F151D8B471D0006E0C
:10075000F551D8B46DD0002604E3810E002668E27E
:1007600004D07F0E005E64E363E0F2C0F9F0F6515E
:10077000F91BF28FF68FF451F803F4CFFBF0F3512D
:10078000F703F4CF03F0F3CFFAF0F803F350FB27AD
:10079000F450FA23000E0322F451F703F350FB2721
:1007A000F450FA23000E026A03220222F251F803E7
:1007B000F350FA27F4500322000E0222F251F703FD
:1007C000F3500326F4500222000E016A0122F45174
:1007D000F603F350FA27F4500322000E02220122FE
:1007E000F351F603F3500326F4500222000E0122C7
:1007F000F251F603F3500226F4500122002A01BE02
:1008000005D0FA370336023601360006000EFAAF7D
:100810000AD0032A02220122015005E1025003E11D
:10082000035001E1002AF9BF018EF9AF019E04D007
:10083000006A016A026A036A1200E5C0ECF0E9513D
:10084000EC1BECAF05D0D894D890E5BFD8802FD062
:10085000E5C0ECF0E8C0EDF0E451ED5F06E0ECAF90
:1008600026D0D850010AD86E22D0E9C0EDF0E5516B
:10087000ED5F06E0ECAF1BD0D850010AD86E17D060
:10088000EAC0EDF0E651ED5F06E0ECAF10D0D850D5
:10089000010AD86E0CD0EBC0EDF0E751ED5F06E039
:1008A000ECAF05D0D850010AD86E01D0D890120014
:1008B000D882AFC0EBF0AEC0EAF0ADC0E9F0ACC09A
:1008C000E8F0ABC0EFF0AAC0EEF0A9C0EDF0A8C010
:1008D000ECF005DE03C0BFF002C0BEF001C0BDF009
:1008E00000C0BCF0D892BFC0EBF0BEC0EAF0BDC003
:1008F000E9F0BCC0E8F0C7C0EFF0C6C0EEF0C5C07C
:10090000EDF0C4C0ECF0EBDD03C0C7F002C0C6F0F0
:1009100001C0C5F000C0C4F0D3C0F4F0D2C0F3F001
:10092000D1C0F2F0D0C0F1F0BFC0F8F0BEC0F7F017
:10093000BDC0F6F0BCC0F5F007DF03C0E7F002C0B1
:10094000E6F001C0E5F000C0E4F0D882BFC0EBF0F3
:10095000BEC0EAF0BDC0E9F0BCC0E8F0C3C0EFF033
:10096000C2C0EEF0C1C0EDF0C0C0ECF0B8DDD7C041
:10097000F4F0D6C0F3F0D5C0F2F0D4C0F1F003C06B
:10098000F8F002C0F7F001C0F6F000C0F5F0DCDED0
:10099000D892E7C0EBF0E6C0EAF0E5C0E9F0E4C0C9
:1009A000E8F003C0EFF002C0EEF001C0EDF000C0CF
:1009B000ECF095DD03C0E7F002C0E6F001C0E5F021
:1009C00000C0E4F0DBC0F4F0DAC0F3F0D9C0F2F01C
:1009D000D8C0F1F0C7C0F8F0C6C0F7F0C5C0F6F057
:1009E000C4C0F5F0B1DED892E7C0EBF0E6C0EAF0A3
:1009F000E5C0E9F0E4C0E8F003C0EFF002C0EEF0BB
:100A000001C0EDF000C0ECF06ADD03C0CFF002C021
:100A1000CEF001C0CDF000C0CCF0D8909A35196A64
:100A2000F2BE198EF29EFF6BFE6F86EC00F019BECF
:100A3000F28ED882CFC0EBF0CEC0EAF0CDC0E9F0A4
:100A4000CCC0E8F003C0EFF002C0EEF001C0EDF062
:100A500000C0ECF044DD03C0E3F002C0E2F001C0EE
:100A6000E1F000C0E0F0E76BE66B780EE56F850E15
:100A7000E46FE3C0EBF0E2C0EAF0E1C0E9F0E0C00F
:100A8000E8F0DBDE06E3E36BE26B780EE16F850EE8
:100A9000E06FE3C0E7F0E2C0E6F0E1C0E5F0E0C0FF
:100AA000E4F0EB6BEA6BE96BE86BC7DE04E3E36B46
:100AB000E26BE16BE06BBFC0C3F0BEC0C2F0BDC073
:100AC000C1F0BCC0C0F091EF06F0D882AFC0EBF02F
:100AD000AEC0EAF0ADC0E9F0ACC0E8F0A7C0EFF0FE
:100AE000A6C0EEF0A5C0EDF0A4C0ECF0F8DC03C0A9
:100AF000B3F002C0B2F001C0B1F000C0B0F0D892C3
:100B0000B3C0EBF0B2C0EAF0B1C0E9F0B0C0E8F0B9
:100B1000BBC0EFF0BAC0EEF0B9C0EDF0B8C0ECF079
:100B2000DEDC03C0BBF002C0BAF001C0B9F000C007
:100B3000B8F0D3C0F4F0D2C0F3F0D1C0F2F0D0C01E
:100B4000F1F0B3C0F8F0B2C0F7F0B1C0F6F0B0C049
:100B5000F5F0FADD03C0E7F002C0E6F001C0E5F011
:100B600000C0E4F0D882B3C0EBF0B2C0EAF0B1C08C
:100B7000E9F0B0C0E8F0B7C0EFF0B6C0EEF0B5C035
:100B8000EDF0B4C0ECF0ABDCD7C0F4F0D6C0F3F0BD
:100B9000D5C0F2F0D4C0F1F003C0F8F002C0F7F015
:100BA00001C0F6F000C0F5F0CFDDD892E7C0EBF061
:100BB000E6C0EAF0E5C0E9F0E4C0E8F003C0EFF019
:100BC00002C0EEF001C0EDF000C0ECF088DC03C024
:100BD000E7F002C0E6F001C0E5F000C0E4F0DBC0E1
:100BE000F4F0DAC0F3F0D9C0F2F0D8C0F1F0BBC035
:100BF000F8F0BAC0F7F0B9C0F6F0B8C0F5F0A4DD6F
:100C0000D892E7C0EBF0E6C0EAF0E5C0E9F0E4C056
:100C1000E8F003C0EFF002C0EEF001C0EDF000C05C
:100C2000ECF05DDC03C0CBF002C0CAF001C0C9F03B
:100C300000C0C8F0D8909A35196AF2BE198EF29E9B
:100C4000FF6BFE6F86EC00F019BEF28ED892CBC01F
:100C5000EBF0CAC0EAF0C9C0E9F0C8C0E8F003C0D0
:100C6000EFF002C0EEF001C0EDF000C0ECF037DCB8
:100C700003C0DFF002C0DEF001C0DDF000C0DCF038
:100C8000E76BE66B780EE56F850EE46FDFC0EBF087
:100C9000DEC0EAF0DDC0E9F0DCC0E8F0CEDD06E35E
:100CA000DF6BDE6B780EDD6F850EDC6FDFC0E7F08B
:100CB000DEC0E6F0DDC0E5F0DCC0E4F0EB6BEA6B33
:100CC000E96BE86BBADD04E3DF6BDE6BDD6BDC6BDD
:100CD000B3C0B7F0B2C0B6F0B1C0B5F0B0C0B4F0B8
:100CE00092EF06F08E0E006EE451005EE5C002F059
:100CF000E6C001F0028E005209E0D890025202E1F3
:100D0000015204E002320132002EF7D7E5AF05D0E0
:100D1000011E021E012AD8B4022A120018EC02F0A9
:100D2000C7D5D3D6DFC0E7F0DEC0E6F0DDC0E5F022
:100D3000DCC0E4F0D7DF01C0BEFFE3C0E7F0E2C0F3
:100D4000E6F0E1C0E5F0E0C0E4F0CCDF01C0BBFFBD
:100D500056EF08F00900F6CFE5F0F7CFE6F0F550D2
:100D60009EA8FED7AD6EE5C0F6FFE6C0F7FFE42F04
:100D7000F1D71200F151B608F16F036AF2C0F5F035
:100D8000F28FD890F233F333F4330332023201326C
:100D90000032F12FF6D7F5AF0BD0001E011E021E58
:100DA000031E002AD8B4012AD8B4022AD8B4032AD0
:100DB00048EF07F0D8B203D0EA6AF90EE96E006A8C
:100DC000016A026A036AF96BFA6BFB6BFC6BF85100
:100DD000F711F611F5112CE0200EFD6FD890F137C8
:100DE000F237F337F437F937FA37FB37FC37F85176
:100DF000FC5D08E1F751FB5D05E1F651FA5D02E1AA
:100E0000F551F95D0FE3F551F95FF651D8A0F63DC4
:100E1000FA5FF751D8A0F73DFB5FF851D8A0F83D35
:100E2000FC5FD8800036013602360336FD2FD6D758
:100E3000F9C0EFFFFAC0ECFFFBC0ECFFFCC0ECFF19
:100E40001200E950E96FE851EB6F19E0E7C0F4F0E8
:100E5000E6C0F3F0E5C0F2F0E4C0F1F0F86BF76B38
:100E6000200EF66F820EF56F6FDC03C0E7F002C054
:100E7000E6F001C0E5F000C0E4F0EB2FE7D7E7C0F3
:100E8000F4F0E6C0F3F0E5C0F2F0E4C0F1F072D7A0
:100E900003C0E7F002C0E6F001C0E5F000C0E4F0F6
:100EA000E7AF0DD0E907E98BE41FE51FE61FE71F59
:100EB000E42BD8B4E52BD8B4E62BD8B4E72B3B0E03
:100EC000F06F9A0EEF6FCA0EEE6FED6B0A0EEB6FBE
:100ED000E851D8B4E92BD882EA6AE40EE96EE7C09B
:100EE000F4F0E6C0F3F0E5C0F2F0E4C0F1F0F0C0D9
:100EF000F8F0EFC0F7F0EEC0F6F0EDC0F5F05ADF15
:100F0000015000520FE1E829EB5D0CE0E9510CE0E3
:100F10000F0BEB5D01E03BE2E9BF39D0E9BD04D046
:100F2000200E30D0200EE917E9AB0DD0E99BE85137
:100F3000D8A4E9070050E96F2D0E9EA8FED7AD6E2C
:100F4000E951006EE96BE851EB5D0BE10050E96F90
:100F50002E0E9EA8FED7AD6EE951006E200EE91749
:100F6000000E300EE9AB0ED0E99BE851D8A4E9079A
:100F70000050E96F2D0E9EA8FED7AD6EE951006EB0
:100F8000E96B300E002600509EA8FED7AD6ED892B9
:100F9000F0C0F4F0EFC0F3F0EEC0F2F0EDC0F1F00D
:100FA000F86BF76BF66B0A0EF56F04DF03C0F0F019
:100FB00002C0EFF001C0EEF000C0EDF0EB2F8BD7D8
:100FC0006AEF08F0EB51016AEA5D03E2EAC000F063
:100FD0000CD0006A080EEC6FEA370036EB51005C6B
:100FE000D8B0006E0136EC2FF7D71200200EE5A91D
:100FF000300EE66FE4C000F0E4AF08D0001E002A17
:1010000000C0E4F02D0EE66FE58FE5810150E4C0ED
:10101000EAF0640EEB6FD6DF00C0E4F0300E01247E
:10102000E76FE4C0EAF00A0EEB6FCCDF300E00246D
:10103000E96F300E0124E86FE6C000F0300EE75D86
:1010400004E0E583E5BFE58512D0E6C0E7F0200EB9
:10105000E66F300EE85D04E0E581E5BFE58307D08B
:10106000D8A4E58104E1E7C0E8F0200EE76FE5B51C
:1010700005D0E5B307D0E5B109D00CD0E6519EA864
:10108000FED7AD6EE7519EA8FED7AD6EE8519EA883
:10109000FED7AD6EE9519EA8FED7AD6E76EF08F093
:1010A00081B025D099516AEF02F038D6A00EF66EC5
:1010B000010EF76E060EE46F4DDEC90EE96EDFC05D
:1010C000E7F0DEC0E6F0DDC0E5F0DCC0E4F0020EE3
:1010D000E86FB7D6AB0EF66E010EF76E030EE46F37
:1010E00039DE9AC0E4F0180EE56F80D7D9D749EF02
:1010F0000BF00900F5520DE0F6CFE7F0F7CFE8F07E
:10110000F5509EA8FED7AD6EE7C0F6FFE8C0F7FF2A
:10111000F0D7C9EF08F0E76BE751050830E3E75176
:10112000040DF350036A690FE96E000E0320EA6EA6
:10113000EFCFE8F0ECCFE9F0ECCFEAF0ECCFEBF05A
:10114000ED52ED52ED52F250006EF29EE7C0A9FF53
:10115000E8C0A8FFA69CA69EA6840F01550EA76E08
:10116000AA0EA76EA682A6B2FED7A6940050F212CF
:10117000140E0001E86F66EC01F0E72BCDD75FEFAE
:101180000AF0E46BE56BE66BC60EF66E000EF76ECA
:10119000B0D7E66BE6516308D8A0F0D0E56BE55117
:1011A0006308D8A0BFD0ECEC00F0E46BE451050874
:1011B000D8A0B6D0845309E1835307E11C50825D67
:1011C00008E303E11B50815D04E382C01CF081C091
:1011D0001BF084530DE183530BE18251285C08E33B
:1011E00003E18151275C04E382C028F081C027F02D
:1011F000885309E1875307E11E50865D08E303E148
:101200001D50855D04E386C01EF085C01DF0885327
:101210000DE187530BE186512A5C08E303E1855118
:10122000295C04E386C02AF085C029F08C5309E1CB
:101230008B5307E120508A5D08E303E11F50895D6D
:1012400004E38AC020F089C01FF08C530DE18B535A
:101250000BE18A512C5C08E303E189512B5C04E328
:101260008AC02CF089C02BF0905309E18F5307E11D
:1012700022508E5D08E303E121508D5D04E38EC0B2
:1012800022F08DC021F090530DE18F530BE18E5170
:101290002E5C08E303E18D512D5C04E38EC02EF03B
:1012A0008DC02DF0945309E1935307E12450925DD2
:1012B00008E303E12350915D04E392C024F091C060
:1012C00023F094530DE193530BE19251305C08E30A
:1012D00003E191512F5C04E392C030F091C02FF0F4
:1012E000985309E1975307E12650965D08E303E11F
:1012F0002550955D04E396C026F095C025F09853DF
:101300000DE197530BE19651325C08E303E19551EF
:10131000315C04E396C032F095C031F0E42B46D73F
:10132000E52B3DD71B5033261C503422000E3522AE
:1013300036221D5037261E503822000E39223A22FE
:101340001F503B2620503C22000E3D223E222150C1
:101350003F2622504022000E4122422223504326A3
:1013600024504422000E452246222550472626506E
:101370004822000E49224A22E62B0CD7E46BE451A6
:10138000050854E3E451040DF350036A4B0F016E5A
:10139000000E032201C0E7F003C0E8F0E451040DA1
:1013A000F350036A330FE96E000E0320EA6EEFCFAD
:1013B000E9F0ECCFEAF0ECCFEBF0ECCFECF0EACFD9
:1013C000EEF0E9CFEDF0D892ECC0F4F0EBC0F3F022
:1013D000EAC0F2F0E9C0F1F0F86BF76BF66BC80EFB
:1013E000F56FE8DCEEC0EAFFEDC0E9FFE8C0EAFF18
:1013F000E7C0E9FF00C0EFFF01C0ECFF02C0ECFF57
:1014000003C0ECFFE451040DF350036A330FE96E9F
:10141000000E0320EA6EEE52EE52EC6AED52EF6AD5
:10142000ED52EF6AED52EF6AE42BA9D7E46BE45179
:10143000050844E3E451040DF350036A690F016E9B
:10144000000E032201C0E7F003C0E8F0E451040DF0
:10145000F350036A4B0FE96E000E0320EA6EEFCFE4
:10146000E9F0ECCFEAF0ECCFEBF0ECCFECF0D89079
:10147000E435036A270FE96E000E0320EA6EECCF15
:1014800003F0ED52EF50E9270350EA23000EEB235F
:10149000EC23D890EC31036EEB31026EEA31016E31
:1014A000E931E8C0EAFFE7C0E9FFEF6E01C0ECFFF9
:1014B00002C0ECFF03C0ECFFE42BB9D72CD668EFD9
:1014C0000AF0010EE46FE56BE66BD9EC00F059D63B
:1014D000010EE46FE56FE66FD9EC00F0640EE86F83
:1014E00066EC01F04DEF0BF0F86AD09E078E1A6A99
:1014F000AA86080EAF6E020EB06EA60EAC6E900EEF
:10150000AB6E996B9A6B9D6B9C6B9F6B9E6BA16B8B
:10151000A06BA36BA26BA76BA66BA56BA46BAB6B4D
:10152000AA6BA96BA86BAF6BAE6B7A0EAD6F870E13
:10153000AC6FB36BB26BB16BB06BB76BB66BB56BBB
:10154000B46BBB6BBA6BB96BB86BBF6BBE6BBD6B6F
:10155000BC6BC36BC26BC16BC06BC76BC66BC56B1F
:10156000C46B1F0ED36F850ED26F130ED16F800E1A
:10157000D06FD70ED76FA30ED66F400ED56F7F0EEC
:10158000D46F270EDB6FA00EDA6F090ED96F750EC0
:10159000D86FB990C19CC19E000EB86E15D01800CE
:1015A0001B0A000A000A000A000A000A00FF03FFE3
:1015B00003FF03FF03FF03FF0330C00006800102A7
:1015C0000408102030C00000000EF86E150EF76EF3
:1015D0009E0EF66E0900F550006E000A13E0090039
:1015E000F550016EE8BE05D00F0BEA6E0900F5CF8D
:1015F000E9FF01BC090001AC0900F5CFEEFF004E88
:10160000E9D7F9D7F86AC69A949E9488949A200EDE
:10161000C66E000EC76EF288F086C00EF212B50ECE
:10162000CD6EC20ECF6EF70ECE6E9D80000E0509F8
:10163000CA6E7C0ECB6E000B9A6EC050800BC06ED3
:10164000C294C296C298C29AC08EC198C280B98014
:10165000C19CC19EFF0EB86E94948B940C0EBD6E0F
:1016600094928B92BA6E7F0E926E959A8C9A959CFC
:101670008C9CE46BE56BE66BD9EC00F018EC02F0A7
:1016800081B008D0E46BE56B010EE66FD9EC00F099
:0E16900007D5F6D781B201D014D7EBD70300EF
:020000040030CA
:0E00000000C20C2E3C9D81000FC00FE00F408F
:00000001FF
;PIC18F4431
;CRC=6ECF  CREATED="31-Jan-21 18:56"
