:1000000001308A00BE2900000A108A100A118207F6
:1000100028340C3401340634C8326C366F00253075
:10002000840083130008031922280630F800F70122
:10003000F70B1828F80B17287B30F700F70B1E2852
:10004000800B152808002C182728081228280816C5
:10005000831608128312AC182F28881230288816AD
:100060008316881283122C1937280813382808178A
:10007000831608138312AC193F2888134028881769
:1000800083168813000083128815831688110230A6
:10009000F700F70B49284C280000831288118316BB
:1000A000881183120800AD018316081600308312F0
:1000B000081A0130AD048316881600308312881A9E
:1000C0000130F7000310F70D7708AD048316081709
:1000D00000308312081B0130F700F70DF70DFC30DC
:1000E000F7057708AD048316881700308312881B44
:1000F0000130F700F70DF70DF70DF830F705770829
:10010000AD042D08F8000800881083168810081622
:10011000881608178817831208158316081100001F
:1001200083128815831688110000831253207808E3
:10013000AC0088118316881100008312881583167D
:1001400088110000831253207808AB0088118316B1
:100150008811081288120813881383122C0EF700D6
:10016000F030F70577082B04F8007808AB00AB1FD8
:10017000BB2883168728A908031DC0288810C1281A
:100180008814831688100000831208118316081142
:100190000000831288118316881183122A0EAB0087
:1001A0000F30AB052B08AC0023202A080F39AB0019
:1001B000AC00232008008316081288120813881345
:1001C00088118810081183128810831688108312F2
:1001D00008118316081183128811831688110F30B5
:1001E0008312A5000F200130A1002108033C031C4D
:1001F00001290330AC0023200530A5000F20A10AFF
:10020000F5280230AC002320A1012108033C031C87
:10021000122921080420A200A9012208AA00842092
:10022000A10A05298A110A12DC29A9010130AA00B4
:1002300084200230A5000F208A110A12DD29260B26
:100240002329A70137292608023C031D2A2940300B
:10025000A70037292608033C031D31291430A700C5
:1002600037292608043C031D37295430A7000130E4
:100270002502A70727088038A800A9012808AA0096
:100280008420080024080C3A03194D29063A031962
:100290005529023A03195B296029A9010130AA00F6
:1002A00084200230A5000F2065290130A50002300E
:1002B000A6001F216529A9011030AA008420652904
:1002C0000130A9002408AA00842008000B08A1001E
:1002D0008B13831603178C170C1400000000831275
:1002E0000313A11B8B1703170C087F390319BA29B5
:1002F0000313A10003170D080313A20003170F082F
:100300000313A3002108A4004221220803178D0033
:100310000313230803178F0003130B08A4008B1388
:10032000831603178C170C140000000083120313AC
:10033000A41B8B1703170C0D0E0D7F390319BA2957
:100340000313A10003170D080313A20003170F08DE
:100350000313A3002108A4004221220803178D00E3
:100360000313230803178F008D0A03198F0A031341
:100370006629031703138A110A12E82903081F3993
:100380008300F9308316870087009301363083128B
:100390009400831611141F149F141F159F1107300A
:1003A0009C0083130030F800063883129200FF305F
:1003B000831692008312DB2815290130A500A600C0
:1003C0001F210C3003178D0000308F0003136629A6
:0403D000DD296300C0
:02400E00323F3F
:00000001FF
;PIC16F877A
;CRC=728D  CREATED="25-Jan-21 15:55"
